:100000000428FF3FFF3FFF3FFF30A1000130A22146
:1000100000309D212408033C03180F28A401A701E8
:100020008F212808A600A60AA70126087A212608FB
:100030003C3C03181E28A70100307A212608323CD8
:10004000031824281430A400A40AA50A2508033C98
:1000500003182B28A5012508033C031D3428FF3075
:10006000A500FF309D216300A508031D7A281430E8
:10007000A700FB30A300230898212408B0211030EA
:10008000A300230898212408B021A70B3928143095
:10009000A7000430A300230898212408B021EF30E2
:1000A000A300230898212408B021A70B4928143065
:1000B000A700FD30A300230898212408B021203098
:1000C000A300230898212408B021A70B5928143035
:1000D000A7000230A300230898212408B021DF30B4
:1000E000A300230898212408B021A70B6928FF301A
:1000F000A50037282508013C031DD4280230A300A1
:10010000230898212408A921FD30A3002308982161
:100110002408A9210430A300230898212408A92138
:10012000FB30A300230898212408A9211030A30044
:10013000230898212408A921EF30A300230898213F
:100140002408A9212030A300230898212408A921EC
:10015000DF30A300230898212408A921A50120301D
:10016000A300230898212408A921EF30A300230825
:1001700098212408A9211030A300230898212408DD
:10018000A921FB30A300230898212408A9210430C9
:10019000A300230898212408A921FD30A3002308E7
:1001A00098212408A9217E282508023C031D7929CD
:1001B0000530A7001430A800FB30A30023089821C5
:1001C0002408B0211030A300230898212408B0216E
:1001D000A80BDC281430A8000430A30023089821C1
:1001E0002408B021EF30A300230898212408B0216F
:1001F000A80BEC281430A800FD30A3002308982198
:100200002408B0212030A300230898212408B0211D
:10021000A80BFC281430A8000230A3002308982162
:100220002408B021DF30A300230898212408B0213E
:10023000A80B0C290130A500A70BDA280530A70070
:100240000230A300230898212408A921FD30A3002F
:10025000230898212408A9210430A3002308982109
:100260002408A921FB30A300230898212408A921F0
:100270001030A300230898212408A921EF30A300FF
:10028000230898212408A9212030A30023089821BD
:100290002408A921DF30A300230898212408A921DC
:1002A0000130A5002030A300230898212408A921AB
:1002B000EF30A300230898212408A9211030A300BF
:1002C000230898212408A921FB30A30023089821A2
:1002D0002408A9210430A300230898212408A92177
:1002E000FD30A300230898212408A921A70B202969
:1002F000D8287929A800270883169B00831228088C
:1003000083169A001C158B1355309D00AA309D0052
:100310009C149C1889291C118B1783120800A800B3
:10032000270883169B001C141A088312A8000800D3
:10033000A2009A29220885000800A1009F2921080F
:1003400065000800A3002308AA006430AB000A304F
:10035000B729A8002808AA006430AB000230B729EA
:10036000A9002908AA000A30AB000130B729AC0067
:10037000FF30AD002B08AF002A08AE0017302D0764
:100380000318BF29AE0BBE29AF0BBC29AC0BBA2991
:100390000800FF3FFF3FFF3FFF3FFF3FFF3FFF3FA3
:1003A000FF3FFF3FFF3FFF3FFF3FFF3FFF3FFF3F5D
:1003B000FF3FFF3FFF3FFF3FFF3FFF3FFF3FFF3F4D
:1003C000FF3FFF3FFF3FFF3FFF3FFF3FFF3FFF3F3D
:1003D000FF3FFF3FFF3FFF3FFF3FFF3FFF3FFF3F2D
:1007F000FF3FFF3FFF3FFF3FFF3FFF3FFF3F803493
:084000000F000F000F000F007C
:02400E00E4319B
:10420000FF00FF00FF00FF00FF00FF00FF00FF00B6
:10421000FF00FF00FF00FF00FF00FF00FF00FF00A6
:10422000FF00FF00FF00FF00FF00FF00FF00FF0096
:10423000FF00FF00FF00FF00FF00FF00FF00FF0086
:10424000FF00FF00FF00FF00FF00FF00FF00FF0076
:10425000FF00FF00FF00FF00FF00FF00FF00FF0066
:10426000FF00FF00FF00FF00FF00FF00FF00FF0056
:10427000FF00FF00FF00FF00FF00FF00FF00FF0046
:10428000FF00FF00FF00FF00FF00FF00FF00FF0036
:10429000FF00FF00FF00FF00FF00FF00FF00FF0026
:1042A000FF00FF00FF00FF00FF00FF00FF00FF0016
:1042B000FF00FF00FF00FF00FF00FF00FF00FF0006
:1042C000FF00FF00FF00FF00FF00FF00FF00FF00F6
:1042D000FF00FF00FF00FF00FF00FF00FF00FF00E6
:1042E000FF00FF00FF00FF00FF00FF00FF00FF00D6
:1042F000FF00FF00FF00FF00FF00FF00FF00FF00C6
:00000001FF
